{
  "contractName": "Yald",
  "abi": [
    {
      "inputs": [],
      "payable": false,
      "stateMutability": "nonpayable",
      "type": "constructor"
    },
    {
      "constant": true,
      "inputs": [],
      "name": "contract_bal",
      "outputs": [
        {
          "internalType": "uint256",
          "name": "",
          "type": "uint256"
        }
      ],
      "payable": false,
      "stateMutability": "view",
      "type": "function"
    },
    {
      "constant": true,
      "inputs": [
        {
          "internalType": "uint256",
          "name": "",
          "type": "uint256"
        }
      ],
      "name": "music",
      "outputs": [
        {
          "internalType": "uint256",
          "name": "id",
          "type": "uint256"
        },
        {
          "internalType": "string",
          "name": "title",
          "type": "string"
        },
        {
          "internalType": "string",
          "name": "author_name",
          "type": "string"
        },
        {
          "internalType": "string",
          "name": "track",
          "type": "string"
        },
        {
          "internalType": "string",
          "name": "artwork",
          "type": "string"
        },
        {
          "internalType": "string",
          "name": "description",
          "type": "string"
        },
        {
          "internalType": "uint256",
          "name": "cir_supply",
          "type": "uint256"
        },
        {
          "internalType": "address payable",
          "name": "author_address",
          "type": "address"
        },
        {
          "components": [
            {
              "internalType": "string",
              "name": "Name",
              "type": "string"
            },
            {
              "internalType": "uint256",
              "name": "royalty_perc",
              "type": "uint256"
            },
            {
              "internalType": "address payable",
              "name": "wallet_address",
              "type": "address"
            }
          ],
          "internalType": "struct Yald.Contributor",
          "name": "contributor_1",
          "type": "tuple"
        },
        {
          "components": [
            {
              "internalType": "string",
              "name": "Name",
              "type": "string"
            },
            {
              "internalType": "uint256",
              "name": "royalty_perc",
              "type": "uint256"
            },
            {
              "internalType": "address payable",
              "name": "wallet_address",
              "type": "address"
            }
          ],
          "internalType": "struct Yald.Contributor",
          "name": "contributor_2",
          "type": "tuple"
        },
        {
          "components": [
            {
              "internalType": "string",
              "name": "Name",
              "type": "string"
            },
            {
              "internalType": "uint256",
              "name": "royalty_perc",
              "type": "uint256"
            },
            {
              "internalType": "address payable",
              "name": "wallet_address",
              "type": "address"
            }
          ],
          "internalType": "struct Yald.Contributor",
          "name": "contributor_3",
          "type": "tuple"
        }
      ],
      "payable": false,
      "stateMutability": "view",
      "type": "function"
    },
    {
      "constant": true,
      "inputs": [],
      "name": "musicCount",
      "outputs": [
        {
          "internalType": "uint256",
          "name": "",
          "type": "uint256"
        }
      ],
      "payable": false,
      "stateMutability": "view",
      "type": "function"
    },
    {
      "constant": true,
      "inputs": [],
      "name": "name",
      "outputs": [
        {
          "internalType": "string",
          "name": "",
          "type": "string"
        }
      ],
      "payable": false,
      "stateMutability": "view",
      "type": "function"
    },
    {
      "constant": true,
      "inputs": [
        {
          "internalType": "address",
          "name": "",
          "type": "address"
        },
        {
          "internalType": "uint256",
          "name": "",
          "type": "uint256"
        }
      ],
      "name": "ownership",
      "outputs": [
        {
          "internalType": "uint256",
          "name": "",
          "type": "uint256"
        }
      ],
      "payable": false,
      "stateMutability": "view",
      "type": "function"
    },
    {
      "constant": true,
      "inputs": [],
      "name": "permissionCount",
      "outputs": [
        {
          "internalType": "uint256",
          "name": "",
          "type": "uint256"
        }
      ],
      "payable": false,
      "stateMutability": "view",
      "type": "function"
    },
    {
      "constant": true,
      "inputs": [],
      "name": "userCount",
      "outputs": [
        {
          "internalType": "uint256",
          "name": "",
          "type": "uint256"
        }
      ],
      "payable": false,
      "stateMutability": "view",
      "type": "function"
    },
    {
      "constant": true,
      "inputs": [
        {
          "internalType": "uint256",
          "name": "",
          "type": "uint256"
        }
      ],
      "name": "users",
      "outputs": [
        {
          "internalType": "address payable",
          "name": "",
          "type": "address"
        }
      ],
      "payable": false,
      "stateMutability": "view",
      "type": "function"
    },
    {
      "constant": false,
      "inputs": [
        {
          "internalType": "address",
          "name": "_address",
          "type": "address"
        },
        {
          "internalType": "uint256",
          "name": "_single_id",
          "type": "uint256"
        }
      ],
      "name": "get_token_amount",
      "outputs": [
        {
          "internalType": "uint256",
          "name": "",
          "type": "uint256"
        }
      ],
      "payable": false,
      "stateMutability": "nonpayable",
      "type": "function"
    },
    {
      "constant": false,
      "inputs": [
        {
          "internalType": "string",
          "name": "_title",
          "type": "string"
        },
        {
          "internalType": "string",
          "name": "_author_name",
          "type": "string"
        },
        {
          "internalType": "string",
          "name": "_track",
          "type": "string"
        },
        {
          "internalType": "string",
          "name": "_artwork",
          "type": "string"
        },
        {
          "internalType": "string",
          "name": "_description",
          "type": "string"
        },
        {
          "components": [
            {
              "internalType": "string",
              "name": "Name",
              "type": "string"
            },
            {
              "internalType": "uint256",
              "name": "royalty_perc",
              "type": "uint256"
            },
            {
              "internalType": "address payable",
              "name": "wallet_address",
              "type": "address"
            }
          ],
          "internalType": "struct Yald.Contributor",
          "name": "_contributor_1",
          "type": "tuple"
        },
        {
          "components": [
            {
              "internalType": "string",
              "name": "Name",
              "type": "string"
            },
            {
              "internalType": "uint256",
              "name": "royalty_perc",
              "type": "uint256"
            },
            {
              "internalType": "address payable",
              "name": "wallet_address",
              "type": "address"
            }
          ],
          "internalType": "struct Yald.Contributor",
          "name": "_contributor_2",
          "type": "tuple"
        },
        {
          "components": [
            {
              "internalType": "string",
              "name": "Name",
              "type": "string"
            },
            {
              "internalType": "uint256",
              "name": "royalty_perc",
              "type": "uint256"
            },
            {
              "internalType": "address payable",
              "name": "wallet_address",
              "type": "address"
            }
          ],
          "internalType": "struct Yald.Contributor",
          "name": "_contributor_3",
          "type": "tuple"
        }
      ],
      "name": "uploadSingle",
      "outputs": [],
      "payable": false,
      "stateMutability": "nonpayable",
      "type": "function"
    },
    {
      "constant": false,
      "inputs": [
        {
          "internalType": "uint256",
          "name": "_id",
          "type": "uint256"
        },
        {
          "internalType": "uint256",
          "name": "amount",
          "type": "uint256"
        },
        {
          "internalType": "uint256",
          "name": "cost",
          "type": "uint256"
        }
      ],
      "name": "sellToken",
      "outputs": [],
      "payable": true,
      "stateMutability": "payable",
      "type": "function"
    },
    {
      "constant": false,
      "inputs": [
        {
          "internalType": "uint256",
          "name": "_id",
          "type": "uint256"
        },
        {
          "internalType": "uint256",
          "name": "amount",
          "type": "uint256"
        }
      ],
      "name": "buyToken",
      "outputs": [],
      "payable": true,
      "stateMutability": "payable",
      "type": "function"
    }
  ],
  "bytecode": "0x608060405260006001556000600255600060035560006007553480156200002557600080fd5b506040518060400160405280600481526020017f59616c640000000000000000000000000000000000000000000000000000000081525060009080519060200190620000739291906200007a565b5062000129565b828054600181600116156101000203166002900490600052602060002090601f016020900481019282601f10620000bd57805160ff1916838001178555620000ee565b82800160010185558215620000ee579182015b82811115620000ed578251825591602001919060010190620000d0565b5b509050620000fd919062000101565b5090565b6200012691905b808211156200012257600081600090555060010162000108565b5090565b90565b6136a880620001396000396000f3fe6080604052600436106100a75760003560e01c8063365b98b211610064578063365b98b2146101a25780638314a996146101df5780638cf5274e146102085780639eb4766714610233578063c63bd02d1461027a578063ee9bfc8c146102a5576100a7565b8063057466ea146100ac57806306fdde03146100c857806307973ccf146100f35780631aabf4dc1461011e5780631f181d571461015b578063294f98b814610177575b600080fd5b6100c660048036036100c19190810190613209565b6102e2565b005b3480156100d457600080fd5b506100dd6111d4565b6040516100ea91906133ad565b60405180910390f35b3480156100ff57600080fd5b50610108611272565b60405161011591906133cf565b60405180910390f35b34801561012a57600080fd5b5061014560048036036101409190810190613032565b611278565b60405161015291906133cf565b60405180910390f35b61017560048036036101709190810190613245565b6112d3565b005b34801561018357600080fd5b5061018c6121fb565b60405161019991906133cf565b60405180910390f35b3480156101ae57600080fd5b506101c960048036036101c491908101906131e0565b612201565b6040516101d69190613392565b60405180910390f35b3480156101eb57600080fd5b506102066004803603610201919081019061306e565b612234565b005b34801561021457600080fd5b5061021d6126ae565b60405161022a91906133cf565b60405180910390f35b34801561023f57600080fd5b5061025a600480360361025591908101906131e0565b6126b4565b6040516102719b9a999897969594939291906133ea565b60405180910390f35b34801561028657600080fd5b5061028f612d4a565b60405161029c91906133cf565b60405180910390f35b3480156102b157600080fd5b506102cc60048036036102c79190810190613032565b612d50565b6040516102d991906133cf565b60405180910390f35b6000821180156102f457506001548211155b6102fd57600080fd5b610305612d75565b600460008481526020019081526020016000206040518061016001604052908160008201548152602001600182018054600181600116156101000203166002900480601f0160208091040260200160405190810160405280929190818152602001828054600181600116156101000203166002900480156103c75780601f1061039c576101008083540402835291602001916103c7565b820191906000526020600020905b8154815290600101906020018083116103aa57829003601f168201915b50505050508152602001600282018054600181600116156101000203166002900480601f0160208091040260200160405190810160405280929190818152602001828054600181600116156101000203166002900480156104695780601f1061043e57610100808354040283529160200191610469565b820191906000526020600020905b81548152906001019060200180831161044c57829003601f168201915b50505050508152602001600382018054600181600116156101000203166002900480601f01602080910402602001604051908101604052809291908181526020018280546001816001161561010002031660029004801561050b5780601f106104e05761010080835404028352916020019161050b565b820191906000526020600020905b8154815290600101906020018083116104ee57829003601f168201915b50505050508152602001600482018054600181600116156101000203166002900480601f0160208091040260200160405190810160405280929190818152602001828054600181600116156101000203166002900480156105ad5780601f10610582576101008083540402835291602001916105ad565b820191906000526020600020905b81548152906001019060200180831161059057829003601f168201915b50505050508152602001600582018054600181600116156101000203166002900480601f01602080910402602001604051908101604052809291908181526020018280546001816001161561010002031660029004801561064f5780601f106106245761010080835404028352916020019161064f565b820191906000526020600020905b81548152906001019060200180831161063257829003601f168201915b50505050508152602001600682015481526020016007820160009054906101000a900473ffffffffffffffffffffffffffffffffffffffff1673ffffffffffffffffffffffffffffffffffffffff1673ffffffffffffffffffffffffffffffffffffffff16815260200160088201604051806060016040529081600082018054600181600116156101000203166002900480601f0160208091040260200160405190810160405280929190818152602001828054600181600116156101000203166002900480156107615780601f1061073657610100808354040283529160200191610761565b820191906000526020600020905b81548152906001019060200180831161074457829003601f168201915b50505050508152602001600182015481526020016002820160009054906101000a900473ffffffffffffffffffffffffffffffffffffffff1673ffffffffffffffffffffffffffffffffffffffff1673ffffffffffffffffffffffffffffffffffffffff16815250508152602001600b8201604051806060016040529081600082018054600181600116156101000203166002900480601f0160208091040260200160405190810160405280929190818152602001828054600181600116156101000203166002900480156108775780601f1061084c57610100808354040283529160200191610877565b820191906000526020600020905b81548152906001019060200180831161085a57829003601f168201915b50505050508152602001600182015481526020016002820160009054906101000a900473ffffffffffffffffffffffffffffffffffffffff1673ffffffffffffffffffffffffffffffffffffffff1673ffffffffffffffffffffffffffffffffffffffff16815250508152602001600e8201604051806060016040529081600082018054600181600116156101000203166002900480601f01602080910402602001604051908101604052809291908181526020018280546001816001161561010002031660029004801561098d5780601f106109625761010080835404028352916020019161098d565b820191906000526020600020905b81548152906001019060200180831161097057829003601f168201915b50505050508152602001600182015481526020016002820160009054906101000a900473ffffffffffffffffffffffffffffffffffffffff1673ffffffffffffffffffffffffffffffffffffffff1673ffffffffffffffffffffffffffffffffffffffff168152505081525050905060006064600a340281610a0b57fe5b049050600073ffffffffffffffffffffffffffffffffffffffff168261010001516040015173ffffffffffffffffffffffffffffffffffffffff1614610ab1578161010001516040015173ffffffffffffffffffffffffffffffffffffffff166108fc606484610100015160200151840281610a8357fe5b049081150290604051600060405180830381858888f19350505050158015610aaf573d6000803e3d6000fd5b505b600073ffffffffffffffffffffffffffffffffffffffff168261012001516040015173ffffffffffffffffffffffffffffffffffffffff1614610b54578161012001516040015173ffffffffffffffffffffffffffffffffffffffff166108fc606484610120015160200151840281610b2657fe5b049081150290604051600060405180830381858888f19350505050158015610b52573d6000803e3d6000fd5b505b600073ffffffffffffffffffffffffffffffffffffffff168261014001516040015173ffffffffffffffffffffffffffffffffffffffff1614610bf7578161014001516040015173ffffffffffffffffffffffffffffffffffffffff166108fc606484610140015160200151840281610bc957fe5b049081150290604051600060405180830381858888f19350505050158015610bf5573d6000803e3d6000fd5b505b6000809050600060646005340281610c0b57fe5b0490506000600190505b6007548111610e30573373ffffffffffffffffffffffffffffffffffffffff166006600083815260200190815260200160002060009054906101000a900473ffffffffffffffffffffffffffffffffffffffff1673ffffffffffffffffffffffffffffffffffffffff161415610c8a57600192505b6000600560006006600085815260200190815260200160002060009054906101000a900473ffffffffffffffffffffffffffffffffffffffff1673ffffffffffffffffffffffffffffffffffffffff1673ffffffffffffffffffffffffffffffffffffffff1681526020019081526020016000206000898152602001908152602001600020541115610e23576006600082815260200190815260200160002060009054906101000a900473ffffffffffffffffffffffffffffffffffffffff1673ffffffffffffffffffffffffffffffffffffffff166108fc8660c00151600560006006600087815260200190815260200160002060009054906101000a900473ffffffffffffffffffffffffffffffffffffffff1673ffffffffffffffffffffffffffffffffffffffff1673ffffffffffffffffffffffffffffffffffffffff16815260200190815260200160002060008b815260200190815260200160002054850281610df557fe5b049081150290604051600060405180830381858888f19350505050158015610e21573d6000803e3d6000fd5b505b8080600101915050610c15565b5081610e9d576007600081548092919060010191905055503360066000600754815260200190815260200160002060006101000a81548173ffffffffffffffffffffffffffffffffffffffff021916908373ffffffffffffffffffffffffffffffffffffffff1602179055505b848460c00151018460c00181815250508360046000888152602001908152602001600020600082015181600001556020820151816001019080519060200190610ee7929190612df7565b506040820151816002019080519060200190610f04929190612df7565b506060820151816003019080519060200190610f21929190612df7565b506080820151816004019080519060200190610f3e929190612df7565b5060a0820151816005019080519060200190610f5b929190612df7565b5060c0820151816006015560e08201518160070160006101000a81548173ffffffffffffffffffffffffffffffffffffffff021916908373ffffffffffffffffffffffffffffffffffffffff160217905550610100820151816008016000820151816000019080519060200190610fd3929190612df7565b506020820151816001015560408201518160020160006101000a81548173ffffffffffffffffffffffffffffffffffffffff021916908373ffffffffffffffffffffffffffffffffffffffff160217905550505061012082015181600b01600082015181600001908051906020019061104d929190612df7565b506020820151816001015560408201518160020160006101000a81548173ffffffffffffffffffffffffffffffffffffffff021916908373ffffffffffffffffffffffffffffffffffffffff160217905550505061014082015181600e0160008201518160000190805190602001906110c7929190612df7565b506020820151816001015560408201518160020160006101000a81548173ffffffffffffffffffffffffffffffffffffffff021916908373ffffffffffffffffffffffffffffffffffffffff160217905550505090505084600560003373ffffffffffffffffffffffffffffffffffffffff1673ffffffffffffffffffffffffffffffffffffffff16815260200190815260200160002060008881526020019081526020016000205401600560003373ffffffffffffffffffffffffffffffffffffffff1673ffffffffffffffffffffffffffffffffffffffff16815260200190815260200160002060008881526020019081526020016000208190555047600381905550505050505050565b60008054600181600116156101000203166002900480601f01602080910402602001604051908101604052809291908181526020018280546001816001161561010002031660029004801561126a5780601f1061123f5761010080835404028352916020019161126a565b820191906000526020600020905b81548152906001019060200180831161124d57829003601f168201915b505050505081565b60075481565b6000600560008473ffffffffffffffffffffffffffffffffffffffff1673ffffffffffffffffffffffffffffffffffffffff168152602001908152602001600020600083815260200190815260200160002054905092915050565b6000831180156112e557506001548311155b6112ee57600080fd5b81600560003373ffffffffffffffffffffffffffffffffffffffff1673ffffffffffffffffffffffffffffffffffffffff168152602001908152602001600020600085815260200190815260200160002054101561134b57600080fd5b81600560003373ffffffffffffffffffffffffffffffffffffffff1673ffffffffffffffffffffffffffffffffffffffff16815260200190815260200160002060008581526020019081526020016000205403600560003373ffffffffffffffffffffffffffffffffffffffff1673ffffffffffffffffffffffffffffffffffffffff1681526020019081526020016000206000858152602001908152602001600020819055506113fa612d75565b600460008581526020019081526020016000206040518061016001604052908160008201548152602001600182018054600181600116156101000203166002900480601f0160208091040260200160405190810160405280929190818152602001828054600181600116156101000203166002900480156114bc5780601f10611491576101008083540402835291602001916114bc565b820191906000526020600020905b81548152906001019060200180831161149f57829003601f168201915b50505050508152602001600282018054600181600116156101000203166002900480601f01602080910402602001604051908101604052809291908181526020018280546001816001161561010002031660029004801561155e5780601f106115335761010080835404028352916020019161155e565b820191906000526020600020905b81548152906001019060200180831161154157829003601f168201915b50505050508152602001600382018054600181600116156101000203166002900480601f0160208091040260200160405190810160405280929190818152602001828054600181600116156101000203166002900480156116005780601f106115d557610100808354040283529160200191611600565b820191906000526020600020905b8154815290600101906020018083116115e357829003601f168201915b50505050508152602001600482018054600181600116156101000203166002900480601f0160208091040260200160405190810160405280929190818152602001828054600181600116156101000203166002900480156116a25780601f10611677576101008083540402835291602001916116a2565b820191906000526020600020905b81548152906001019060200180831161168557829003601f168201915b50505050508152602001600582018054600181600116156101000203166002900480601f0160208091040260200160405190810160405280929190818152602001828054600181600116156101000203166002900480156117445780601f1061171957610100808354040283529160200191611744565b820191906000526020600020905b81548152906001019060200180831161172757829003601f168201915b50505050508152602001600682015481526020016007820160009054906101000a900473ffffffffffffffffffffffffffffffffffffffff1673ffffffffffffffffffffffffffffffffffffffff1673ffffffffffffffffffffffffffffffffffffffff16815260200160088201604051806060016040529081600082018054600181600116156101000203166002900480601f0160208091040260200160405190810160405280929190818152602001828054600181600116156101000203166002900480156118565780601f1061182b57610100808354040283529160200191611856565b820191906000526020600020905b81548152906001019060200180831161183957829003601f168201915b50505050508152602001600182015481526020016002820160009054906101000a900473ffffffffffffffffffffffffffffffffffffffff1673ffffffffffffffffffffffffffffffffffffffff1673ffffffffffffffffffffffffffffffffffffffff16815250508152602001600b8201604051806060016040529081600082018054600181600116156101000203166002900480601f01602080910402602001604051908101604052809291908181526020018280546001816001161561010002031660029004801561196c5780601f106119415761010080835404028352916020019161196c565b820191906000526020600020905b81548152906001019060200180831161194f57829003601f168201915b50505050508152602001600182015481526020016002820160009054906101000a900473ffffffffffffffffffffffffffffffffffffffff1673ffffffffffffffffffffffffffffffffffffffff1673ffffffffffffffffffffffffffffffffffffffff16815250508152602001600e8201604051806060016040529081600082018054600181600116156101000203166002900480601f016020809104026020016040519081016040528092919081815260200182805460018160011615610100020316600290048015611a825780601f10611a5757610100808354040283529160200191611a82565b820191906000526020600020905b815481529060010190602001808311611a6557829003601f168201915b50505050508152602001600182015481526020016002820160009054906101000a900473ffffffffffffffffffffffffffffffffffffffff1673ffffffffffffffffffffffffffffffffffffffff1673ffffffffffffffffffffffffffffffffffffffff1681525050815250509050828160c00151038160c001818152505060006064600a840281611b1057fe5b049050600073ffffffffffffffffffffffffffffffffffffffff168261010001516040015173ffffffffffffffffffffffffffffffffffffffff1614611bb6578161010001516040015173ffffffffffffffffffffffffffffffffffffffff166108fc606484610100015160200151840281611b8857fe5b049081150290604051600060405180830381858888f19350505050158015611bb4573d6000803e3d6000fd5b505b600073ffffffffffffffffffffffffffffffffffffffff168261012001516040015173ffffffffffffffffffffffffffffffffffffffff1614611c59578161012001516040015173ffffffffffffffffffffffffffffffffffffffff166108fc606484610120015160200151840281611c2b57fe5b049081150290604051600060405180830381858888f19350505050158015611c57573d6000803e3d6000fd5b505b600073ffffffffffffffffffffffffffffffffffffffff168261014001516040015173ffffffffffffffffffffffffffffffffffffffff1614611cfc578161014001516040015173ffffffffffffffffffffffffffffffffffffffff166108fc606484610140015160200151840281611cce57fe5b049081150290604051600060405180830381858888f19350505050158015611cfa573d6000803e3d6000fd5b505b600060646005850281611d0b57fe5b0490506000600190505b6007548111611f2f576000600560006006600085815260200190815260200160002060009054906101000a900473ffffffffffffffffffffffffffffffffffffffff1673ffffffffffffffffffffffffffffffffffffffff1673ffffffffffffffffffffffffffffffffffffffff168152602001908152602001600020600089815260200190815260200160002054118015611e1057503373ffffffffffffffffffffffffffffffffffffffff166006600083815260200190815260200160002060009054906101000a900473ffffffffffffffffffffffffffffffffffffffff1673ffffffffffffffffffffffffffffffffffffffff1614155b15611f22576006600082815260200190815260200160002060009054906101000a900473ffffffffffffffffffffffffffffffffffffffff1673ffffffffffffffffffffffffffffffffffffffff166108fc8560c00151600560006006600087815260200190815260200160002060009054906101000a900473ffffffffffffffffffffffffffffffffffffffff1673ffffffffffffffffffffffffffffffffffffffff1673ffffffffffffffffffffffffffffffffffffffff16815260200190815260200160002060008b815260200190815260200160002054850281611ef457fe5b049081150290604051600060405180830381858888f19350505050158015611f20573d6000803e3d6000fd5b505b8080600101915050611d15565b508260046000888152602001908152602001600020600082015181600001556020820151816001019080519060200190611f6a929190612df7565b506040820151816002019080519060200190611f87929190612df7565b506060820151816003019080519060200190611fa4929190612df7565b506080820151816004019080519060200190611fc1929190612df7565b5060a0820151816005019080519060200190611fde929190612df7565b5060c0820151816006015560e08201518160070160006101000a81548173ffffffffffffffffffffffffffffffffffffffff021916908373ffffffffffffffffffffffffffffffffffffffff160217905550610100820151816008016000820151816000019080519060200190612056929190612df7565b506020820151816001015560408201518160020160006101000a81548173ffffffffffffffffffffffffffffffffffffffff021916908373ffffffffffffffffffffffffffffffffffffffff160217905550505061012082015181600b0160008201518160000190805190602001906120d0929190612df7565b506020820151816001015560408201518160020160006101000a81548173ffffffffffffffffffffffffffffffffffffffff021916908373ffffffffffffffffffffffffffffffffffffffff160217905550505061014082015181600e01600082015181600001908051906020019061214a929190612df7565b506020820151816001015560408201518160020160006101000a81548173ffffffffffffffffffffffffffffffffffffffff021916908373ffffffffffffffffffffffffffffffffffffffff16021790555050509050503373ffffffffffffffffffffffffffffffffffffffff166108fc82848703039081150290604051600060405180830381858888f193505050501580156121eb573d6000803e3d6000fd5b5047600381905550505050505050565b60015481565b60066020528060005260406000206000915054906101000a900473ffffffffffffffffffffffffffffffffffffffff1681565b600088511161224257600080fd5b600087511161225057600080fd5b600086511161225e57600080fd5b600085511161226c57600080fd5b600084511161227a57600080fd5b600073ffffffffffffffffffffffffffffffffffffffff163373ffffffffffffffffffffffffffffffffffffffff1614156122b457600080fd5b60648160200151836020015185602001510101146122d157600080fd5b60008360000151511180156122eb57506000826000015151115b80156122fc57506000816000015151115b61230557600080fd5b600073ffffffffffffffffffffffffffffffffffffffff16836040015173ffffffffffffffffffffffffffffffffffffffff161415806123765750600073ffffffffffffffffffffffffffffffffffffffff16826040015173ffffffffffffffffffffffffffffffffffffffff1614155b806123b25750600073ffffffffffffffffffffffffffffffffffffffff16816040015173ffffffffffffffffffffffffffffffffffffffff1614155b6123bb57600080fd5b6001600081548092919060010191905055506040518061016001604052806001548152602001898152602001888152602001878152602001868152602001858152602001600081526020013373ffffffffffffffffffffffffffffffffffffffff1681526020018481526020018381526020018281525060046000600154815260200190815260200160002060008201518160000155602082015181600101908051906020019061246d929190612df7565b50604082015181600201908051906020019061248a929190612df7565b5060608201518160030190805190602001906124a7929190612df7565b5060808201518160040190805190602001906124c4929190612df7565b5060a08201518160050190805190602001906124e1929190612df7565b5060c0820151816006015560e08201518160070160006101000a81548173ffffffffffffffffffffffffffffffffffffffff021916908373ffffffffffffffffffffffffffffffffffffffff160217905550610100820151816008016000820151816000019080519060200190612559929190612df7565b506020820151816001015560408201518160020160006101000a81548173ffffffffffffffffffffffffffffffffffffffff021916908373ffffffffffffffffffffffffffffffffffffffff160217905550505061012082015181600b0160008201518160000190805190602001906125d3929190612df7565b506020820151816001015560408201518160020160006101000a81548173ffffffffffffffffffffffffffffffffffffffff021916908373ffffffffffffffffffffffffffffffffffffffff160217905550505061014082015181600e01600082015181600001908051906020019061264d929190612df7565b506020820151816001015560408201518160020160006101000a81548173ffffffffffffffffffffffffffffffffffffffff021916908373ffffffffffffffffffffffffffffffffffffffff16021790555050509050505050505050505050565b60035481565b6004602052806000526040600020600091509050806000015490806001018054600181600116156101000203166002900480601f0160208091040260200160405190810160405280929190818152602001828054600181600116156101000203166002900480156127665780601f1061273b57610100808354040283529160200191612766565b820191906000526020600020905b81548152906001019060200180831161274957829003601f168201915b505050505090806002018054600181600116156101000203166002900480601f0160208091040260200160405190810160405280929190818152602001828054600181600116156101000203166002900480156128045780601f106127d957610100808354040283529160200191612804565b820191906000526020600020905b8154815290600101906020018083116127e757829003601f168201915b505050505090806003018054600181600116156101000203166002900480601f0160208091040260200160405190810160405280929190818152602001828054600181600116156101000203166002900480156128a25780601f10612877576101008083540402835291602001916128a2565b820191906000526020600020905b81548152906001019060200180831161288557829003601f168201915b505050505090806004018054600181600116156101000203166002900480601f0160208091040260200160405190810160405280929190818152602001828054600181600116156101000203166002900480156129405780601f1061291557610100808354040283529160200191612940565b820191906000526020600020905b81548152906001019060200180831161292357829003601f168201915b505050505090806005018054600181600116156101000203166002900480601f0160208091040260200160405190810160405280929190818152602001828054600181600116156101000203166002900480156129de5780601f106129b3576101008083540402835291602001916129de565b820191906000526020600020905b8154815290600101906020018083116129c157829003601f168201915b5050505050908060060154908060070160009054906101000a900473ffffffffffffffffffffffffffffffffffffffff169080600801604051806060016040529081600082018054600181600116156101000203166002900480601f016020809104026020016040519081016040528092919081815260200182805460018160011615610100020316600290048015612ab85780601f10612a8d57610100808354040283529160200191612ab8565b820191906000526020600020905b815481529060010190602001808311612a9b57829003601f168201915b50505050508152602001600182015481526020016002820160009054906101000a900473ffffffffffffffffffffffffffffffffffffffff1673ffffffffffffffffffffffffffffffffffffffff1673ffffffffffffffffffffffffffffffffffffffff16815250509080600b01604051806060016040529081600082018054600181600116156101000203166002900480601f016020809104026020016040519081016040528092919081815260200182805460018160011615610100020316600290048015612bca5780601f10612b9f57610100808354040283529160200191612bca565b820191906000526020600020905b815481529060010190602001808311612bad57829003601f168201915b50505050508152602001600182015481526020016002820160009054906101000a900473ffffffffffffffffffffffffffffffffffffffff1673ffffffffffffffffffffffffffffffffffffffff1673ffffffffffffffffffffffffffffffffffffffff16815250509080600e01604051806060016040529081600082018054600181600116156101000203166002900480601f016020809104026020016040519081016040528092919081815260200182805460018160011615610100020316600290048015612cdc5780601f10612cb157610100808354040283529160200191612cdc565b820191906000526020600020905b815481529060010190602001808311612cbf57829003601f168201915b50505050508152602001600182015481526020016002820160009054906101000a900473ffffffffffffffffffffffffffffffffffffffff1673ffffffffffffffffffffffffffffffffffffffff1673ffffffffffffffffffffffffffffffffffffffff168152505090508b565b60025481565b6005602052816000526040600020602052806000526040600020600091509150505481565b60405180610160016040528060008152602001606081526020016060815260200160608152602001606081526020016060815260200160008152602001600073ffffffffffffffffffffffffffffffffffffffff168152602001612dd7612e77565b8152602001612de4612e77565b8152602001612df1612e77565b81525090565b828054600181600116156101000203166002900490600052602060002090601f016020900481019282601f10612e3857805160ff1916838001178555612e66565b82800160010185558215612e66579182015b82811115612e65578251825591602001919060010190612e4a565b5b509050612e739190612eae565b5090565b60405180606001604052806060815260200160008152602001600073ffffffffffffffffffffffffffffffffffffffff1681525090565b612ed091905b80821115612ecc576000816000905550600101612eb4565b5090565b90565b600081359050612ee281613620565b92915050565b600081359050612ef781613637565b92915050565b600082601f830112612f0e57600080fd5b8135612f21612f1c826134fa565b6134cd565b91508082526020830160208301858383011115612f3d57600080fd5b612f488382846135cd565b50505092915050565b600082601f830112612f6257600080fd5b8135612f75612f7082613526565b6134cd565b91508082526020830160208301858383011115612f9157600080fd5b612f9c8382846135cd565b50505092915050565b600060608284031215612fb757600080fd5b612fc160606134cd565b9050600082013567ffffffffffffffff811115612fdd57600080fd5b612fe984828501612efd565b6000830152506020612ffd8482850161301d565b602083015250604061301184828501612ee8565b60408301525092915050565b60008135905061302c8161364e565b92915050565b6000806040838503121561304557600080fd5b600061305385828601612ed3565b92505060206130648582860161301d565b9150509250929050565b600080600080600080600080610100898b03121561308b57600080fd5b600089013567ffffffffffffffff8111156130a557600080fd5b6130b18b828c01612f51565b985050602089013567ffffffffffffffff8111156130ce57600080fd5b6130da8b828c01612f51565b975050604089013567ffffffffffffffff8111156130f757600080fd5b6131038b828c01612f51565b965050606089013567ffffffffffffffff81111561312057600080fd5b61312c8b828c01612f51565b955050608089013567ffffffffffffffff81111561314957600080fd5b6131558b828c01612f51565b94505060a089013567ffffffffffffffff81111561317257600080fd5b61317e8b828c01612fa5565b93505060c089013567ffffffffffffffff81111561319b57600080fd5b6131a78b828c01612fa5565b92505060e089013567ffffffffffffffff8111156131c457600080fd5b6131d08b828c01612fa5565b9150509295985092959890939650565b6000602082840312156131f257600080fd5b60006132008482850161301d565b91505092915050565b6000806040838503121561321c57600080fd5b600061322a8582860161301d565b925050602061323b8582860161301d565b9150509250929050565b60008060006060848603121561325a57600080fd5b60006132688682870161301d565b93505060206132798682870161301d565b925050604061328a8682870161301d565b9150509250925092565b61329d81613591565b82525050565b6132ac81613591565b82525050565b60006132bd82613552565b6132c7818561355d565b93506132d78185602086016135dc565b6132e08161360f565b840191505092915050565b60006132f682613552565b613300818561356e565b93506133108185602086016135dc565b6133198161360f565b840191505092915050565b6000606083016000830151848203600086015261334182826132b2565b91505060208301516133566020860182613374565b5060408301516133696040860182613294565b508091505092915050565b61337d816135c3565b82525050565b61338c816135c3565b82525050565b60006020820190506133a760008301846132a3565b92915050565b600060208201905081810360008301526133c781846132eb565b905092915050565b60006020820190506133e46000830184613383565b92915050565b600061016082019050613400600083018e613383565b8181036020830152613412818d6132eb565b90508181036040830152613426818c6132eb565b9050818103606083015261343a818b6132eb565b9050818103608083015261344e818a6132eb565b905081810360a083015261346281896132eb565b905061347160c0830188613383565b61347e60e08301876132a3565b8181036101008301526134918186613324565b90508181036101208301526134a68185613324565b90508181036101408301526134bb8184613324565b90509c9b505050505050505050505050565b6000604051905081810181811067ffffffffffffffff821117156134f057600080fd5b8060405250919050565b600067ffffffffffffffff82111561351157600080fd5b601f19601f8301169050602081019050919050565b600067ffffffffffffffff82111561353d57600080fd5b601f19601f8301169050602081019050919050565b600081519050919050565b600082825260208201905092915050565b600082825260208201905092915050565b600061358a826135a3565b9050919050565b600061359c826135a3565b9050919050565b600073ffffffffffffffffffffffffffffffffffffffff82169050919050565b6000819050919050565b82818337600083830152505050565b60005b838110156135fa5780820151818401526020810190506135df565b83811115613609576000848401525b50505050565b6000601f19601f8301169050919050565b6136298161357f565b811461363457600080fd5b50565b61364081613591565b811461364b57600080fd5b50565b613657816135c3565b811461366257600080fd5b5056fea365627a7a72315820d1bdb808d0ad8733af7a0f839d5d3b4992895dd98ece2dade3df0da20d2116dc6c6578706572696d656e74616cf564736f6c63430005100040",
  "source": "// pragma solidity ^0.5.0;\npragma solidity ^0.5.0;\npragma experimental ABIEncoderV2;\n\ncontract Yald {\n    string public name;\n    uint public musicCount = 0;\n    uint public permissionCount = 0;\n    uint public contract_bal = 0;\n    mapping(uint => Single) public music;\n    mapping(address => mapping (uint => uint)) public ownership;\n\n    mapping(uint => address payable) public users;\n    uint public userCount = 0;\n\n    struct Contributor{\n        string Name;\n        uint royalty_perc; //sum up to 100 amoung all\n        address payable wallet_address;\n    }\n\n    struct Single {\n        uint id;\n        string title;\n        string author_name;\n        string track;\n        string artwork;\n        string description;\n        uint cir_supply;\n        // uint cur_price;\n        address payable author_address;\n        Contributor contributor_1;\n        Contributor contributor_2;\n        Contributor contributor_3;\n    }\n\n\n    constructor() public {\n        name = \"Yald\";\n    }\n\n    function get_token_amount(address _address, uint _single_id) public returns (uint) {\n        return ownership[_address][_single_id];\n    }\n\n    // function uploadSingle(string memory _title, string memory _author_name, string memory _track, string memory _artwork, string memory _description) public {\n    function uploadSingle(string memory _title, string memory _author_name, string memory _track, string memory _artwork, string memory _description, Contributor memory _contributor_1, Contributor memory _contributor_2, Contributor memory _contributor_3) public {\n        // Make sure all the info exist\n        require(bytes(_title).length > 0);\n        require(bytes(_author_name).length > 0);\n        require(bytes(_track).length > 0);\n        require(bytes(_artwork).length > 0);\n        require(bytes(_description).length > 0);\n        require(msg.sender!=address(0));\n        // Make sure _contribution info is valid\n        require(_contributor_1.royalty_perc + _contributor_2.royalty_perc + _contributor_3.royalty_perc == 100);\n        require(bytes(_contributor_1.Name).length > 0 && bytes(_contributor_2.Name).length > 0 && bytes(_contributor_3.Name).length > 0);\n        require(_contributor_1.wallet_address!=address(0) || _contributor_2.wallet_address!=address(0) || _contributor_3.wallet_address!=address(0));\n\n        // Increment image id\n        musicCount ++;\n        music[musicCount] = Single(musicCount, _title, _author_name, _track,  _artwork, _description, 0, msg.sender, _contributor_1, _contributor_2, _contributor_3);\n    }\n\n    function sellToken(uint _id, uint amount, uint cost) public payable {//cost in wei\n        //reduce the token's ownership\n        require(_id > 0 && _id <= musicCount);\n        require(ownership[msg.sender][_id] >= amount);\n        ownership[msg.sender][_id] = ownership[msg.sender][_id] - amount;\n        //fetch the single\n        Single memory _single = music[_id];\n        //decrease circulating supply\n        _single.cir_supply = _single.cir_supply - amount;\n\n        //give the rest 10% to the artist\n        uint for_artist = cost * 10 / 100;\n        if (_single.contributor_1.wallet_address != address(0)){\n            (_single.contributor_1.wallet_address).transfer(for_artist * _single.contributor_1.royalty_perc / 100);\n        }\n        if (_single.contributor_2.wallet_address != address(0)){\n            (_single.contributor_2.wallet_address).transfer(for_artist * _single.contributor_2.royalty_perc / 100);\n        }\n        if (_single.contributor_3.wallet_address != address(0)){\n            (_single.contributor_3.wallet_address).transfer(for_artist * _single.contributor_3.royalty_perc / 100);\n        }\n\n        uint for_holders = cost * 5 / 100;\n        for (uint i=1; i<=userCount; i++){\n            if (ownership[users[i]][_id] > 0 && users[i] != msg.sender){\n                users[i].transfer(for_holders * ownership[users[i]][_id] / _single.cir_supply);\n            }\n        }\n\n        //update the single\n        music[_id] = _single;\n        //give seller the rest 85%\n        msg.sender.transfer(cost - for_artist - for_holders);\n        contract_bal = address(this).balance;\n    }\n\n    function buyToken(uint _id, uint amount) public payable { //the cost has already been calculated correctly from the web3\n        // Make sure the id is valid\n        require(_id > 0 && _id <= musicCount);\n        // Fetch the single\n        Single memory _single = music[_id];\n        //give 10% to contributors\n        uint for_artist = msg.value * 10 / 100;\n        if (_single.contributor_1.wallet_address != address(0)){\n            (_single.contributor_1.wallet_address).transfer(for_artist * _single.contributor_1.royalty_perc / 100);\n        }\n        if (_single.contributor_2.wallet_address != address(0)){\n            (_single.contributor_2.wallet_address).transfer(for_artist * _single.contributor_2.royalty_perc / 100);\n        }\n        if (_single.contributor_3.wallet_address != address(0)){\n            (_single.contributor_3.wallet_address).transfer(for_artist * _single.contributor_3.royalty_perc / 100);\n        }\n\n        //give 5% to holders\n        bool is_registered = false;\n        uint for_holders = msg.value * 5 / 100;\n        for (uint i=1; i<=userCount; i++){\n            if (users[i] == msg.sender){\n                is_registered = true;\n            }\n            if (ownership[users[i]][_id] > 0){\n                users[i].transfer(for_holders * ownership[users[i]][_id] / _single.cir_supply);\n            }\n        }\n\n        //add user's address to list, if hasn't done so\n        if (!is_registered){\n            userCount++;\n            users[userCount] = msg.sender;\n        }\n        //add cir_supply\n        _single.cir_supply = _single.cir_supply + amount;\n        // Update the single\n        music[_id] = _single;\n        //Update ownership\n        ownership[msg.sender][_id] = ownership[msg.sender][_id] + amount;\n        contract_bal = address(this).balance;\n  }\n}",
  "sourcePath": "/Users/kabelt/Desktop/yald/src/contracts/Yald.sol",
  "compiler": {
    "name": "solc",
    "version": "0.5.16+commit.9c3226ce.Emscripten.clang"
  },
  "schemaVersion": "3.4.1",
  "updatedAt": "2021-07-19T11:19:35.394Z",
  "networkType": "ethereum",
  "devdoc": {
    "methods": {}
  },
  "userdoc": {
    "methods": {}
  }
}